{"abi":[{"type":"constructor","inputs":[{"name":"_usdcToken","type":"address","internalType":"address"},{"name":"_treasury","type":"address","internalType":"address"},{"name":"_createBidReservePrice","type":"uint256","internalType":"uint256"},{"name":"_contributeBidReservePrice","type":"uint256","internalType":"uint256"},{"name":"_scheduledEndTime","type":"uint256","internalType":"uint256"},{"name":"_urlString","type":"string","internalType":"string"},{"name":"_validUntil","type":"uint256","internalType":"uint256"},{"name":"_tokenId","type":"uint256","internalType":"uint256"}],"stateMutability":"nonpayable"},{"type":"function","name":"auction","inputs":[],"outputs":[{"name":"tokenId","type":"uint256","internalType":"uint256"},{"name":"highestBid","type":"tuple","internalType":"struct AuctionTypesV4.Bid","components":[{"name":"totalAmount","type":"uint256","internalType":"uint256"},{"name":"urlString","type":"string","internalType":"string"},{"name":"contributions","type":"tuple[]","internalType":"struct AuctionTypesV4.BidContribution[]","components":[{"name":"contributor","type":"address","internalType":"address"},{"name":"amount","type":"uint256","internalType":"uint256"},{"name":"timestamp","type":"uint256","internalType":"uint256"}]}]},{"name":"startTime","type":"uint256","internalType":"uint256"},{"name":"endTime","type":"uint256","internalType":"uint256"},{"name":"settled","type":"bool","internalType":"bool"},{"name":"qrMetadata","type":"tuple","internalType":"struct AuctionTypesV4.QRData","components":[{"name":"validUntil","type":"uint256","internalType":"uint256"},{"name":"urlString","type":"string","internalType":"string"}]}],"stateMutability":"view"},{"type":"function","name":"contributeBidReservePrice","inputs":[],"outputs":[{"name":"","type":"uint256","internalType":"uint256"}],"stateMutability":"view"},{"type":"function","name":"contributeToBid","inputs":[{"name":"_tokenId","type":"uint256","internalType":"uint256"},{"name":"_urlString","type":"string","internalType":"string"},{"name":"_name","type":"string","internalType":"string"}],"outputs":[],"stateMutability":"nonpayable"},{"type":"function","name":"createBid","inputs":[{"name":"_tokenId","type":"uint256","internalType":"uint256"},{"name":"_urlString","type":"string","internalType":"string"},{"name":"_name","type":"string","internalType":"string"}],"outputs":[],"stateMutability":"nonpayable"},{"type":"function","name":"createBidReservePrice","inputs":[],"outputs":[{"name":"","type":"uint256","internalType":"uint256"}],"stateMutability":"view"},{"type":"function","name":"emergencyWithdrawERC20","inputs":[{"name":"token","type":"address","internalType":"address"},{"name":"to","type":"address","internalType":"address"},{"name":"amount","type":"uint256","internalType":"uint256"}],"outputs":[],"stateMutability":"nonpayable"},{"type":"function","name":"getAllBids","inputs":[],"outputs":[{"name":"","type":"tuple[]","internalType":"struct AuctionTypesV4.Bid[]","components":[{"name":"totalAmount","type":"uint256","internalType":"uint256"},{"name":"urlString","type":"string","internalType":"string"},{"name":"contributions","type":"tuple[]","internalType":"struct AuctionTypesV4.BidContribution[]","components":[{"name":"contributor","type":"address","internalType":"address"},{"name":"amount","type":"uint256","internalType":"uint256"},{"name":"timestamp","type":"uint256","internalType":"uint256"}]}]}],"stateMutability":"view"},{"type":"function","name":"getBid","inputs":[{"name":"_urlString","type":"string","internalType":"string"}],"outputs":[{"name":"","type":"tuple","internalType":"struct AuctionTypesV4.Bid","components":[{"name":"totalAmount","type":"uint256","internalType":"uint256"},{"name":"urlString","type":"string","internalType":"string"},{"name":"contributions","type":"tuple[]","internalType":"struct AuctionTypesV4.BidContribution[]","components":[{"name":"contributor","type":"address","internalType":"address"},{"name":"amount","type":"uint256","internalType":"uint256"},{"name":"timestamp","type":"uint256","internalType":"uint256"}]}]}],"stateMutability":"view"},{"type":"function","name":"getBidCount","inputs":[],"outputs":[{"name":"","type":"uint256","internalType":"uint256"}],"stateMutability":"view"},{"type":"function","name":"getBidderName","inputs":[{"name":"_bidder","type":"address","internalType":"address"}],"outputs":[{"name":"","type":"string","internalType":"string"}],"stateMutability":"view"},{"type":"function","name":"isWhitelistedSettler","inputs":[{"name":"_settler","type":"address","internalType":"address"}],"outputs":[{"name":"","type":"bool","internalType":"bool"}],"stateMutability":"view"},{"type":"function","name":"maxExtensionTime","inputs":[],"outputs":[{"name":"","type":"uint256","internalType":"uint256"}],"stateMutability":"view"},{"type":"function","name":"overrideAuctionWinner","inputs":[{"name":"_bidder","type":"address","internalType":"address"},{"name":"_urlString","type":"string","internalType":"string"},{"name":"_newAmount","type":"uint256","internalType":"uint256"},{"name":"_refundOriginalWinner","type":"bool","internalType":"bool"},{"name":"_name","type":"string","internalType":"string"}],"outputs":[],"stateMutability":"nonpayable"},{"type":"function","name":"owner","inputs":[],"outputs":[{"name":"","type":"address","internalType":"address"}],"stateMutability":"view"},{"type":"function","name":"pause","inputs":[],"outputs":[],"stateMutability":"nonpayable"},{"type":"function","name":"paused","inputs":[],"outputs":[{"name":"","type":"bool","internalType":"bool"}],"stateMutability":"view"},{"type":"function","name":"renounceOwnership","inputs":[],"outputs":[],"stateMutability":"nonpayable"},{"type":"function","name":"scheduledEndTime","inputs":[],"outputs":[{"name":"","type":"uint256","internalType":"uint256"}],"stateMutability":"view"},{"type":"function","name":"setContributeBidReservePrice","inputs":[{"name":"_contributeBidReservePrice","type":"uint256","internalType":"uint256"}],"outputs":[],"stateMutability":"nonpayable"},{"type":"function","name":"setCreateBidReservePrice","inputs":[{"name":"_createBidReservePrice","type":"uint256","internalType":"uint256"}],"outputs":[],"stateMutability":"nonpayable"},{"type":"function","name":"setInitialMetadata","inputs":[{"name":"_urlString","type":"string","internalType":"string"},{"name":"_validUntil","type":"uint256","internalType":"uint256"}],"outputs":[],"stateMutability":"nonpayable"},{"type":"function","name":"setInitialTokenId","inputs":[{"name":"_tokenId","type":"uint256","internalType":"uint256"}],"outputs":[],"stateMutability":"nonpayable"},{"type":"function","name":"setMaxExtensionTime","inputs":[{"name":"_maxExtensionTime","type":"uint256","internalType":"uint256"}],"outputs":[],"stateMutability":"nonpayable"},{"type":"function","name":"setScheduledEndTime","inputs":[{"name":"_scheduledEndTime","type":"uint256","internalType":"uint256"}],"outputs":[],"stateMutability":"nonpayable"},{"type":"function","name":"setTimeBuffer","inputs":[{"name":"_timeBuffer","type":"uint256","internalType":"uint256"}],"outputs":[],"stateMutability":"nonpayable"},{"type":"function","name":"setUSDCToken","inputs":[{"name":"_usdcToken","type":"address","internalType":"address"}],"outputs":[],"stateMutability":"nonpayable"},{"type":"function","name":"settings","inputs":[],"outputs":[{"name":"usdcToken","type":"address","internalType":"address"},{"name":"treasury","type":"address","internalType":"address"},{"name":"createBidReservePrice","type":"uint256","internalType":"uint256"},{"name":"contributeBidReservePrice","type":"uint256","internalType":"uint256"},{"name":"timeBuffer","type":"uint256","internalType":"uint256"},{"name":"launched","type":"bool","internalType":"bool"},{"name":"scheduledEndTime","type":"uint256","internalType":"uint256"},{"name":"maxExtensionTime","type":"uint256","internalType":"uint256"},{"name":"qrMetadata","type":"tuple","internalType":"struct AuctionTypesV4.QRData","components":[{"name":"validUntil","type":"uint256","internalType":"uint256"},{"name":"urlString","type":"string","internalType":"string"}]}],"stateMutability":"view"},{"type":"function","name":"settleAuction","inputs":[],"outputs":[],"stateMutability":"nonpayable"},{"type":"function","name":"settleCurrentAndCreateNewAuction","inputs":[],"outputs":[],"stateMutability":"nonpayable"},{"type":"function","name":"timeBuffer","inputs":[],"outputs":[{"name":"","type":"uint256","internalType":"uint256"}],"stateMutability":"view"},{"type":"function","name":"transferOwnership","inputs":[{"name":"newOwner","type":"address","internalType":"address"}],"outputs":[],"stateMutability":"nonpayable"},{"type":"function","name":"treasury","inputs":[],"outputs":[{"name":"","type":"address","internalType":"address"}],"stateMutability":"view"},{"type":"function","name":"unpause","inputs":[],"outputs":[],"stateMutability":"nonpayable"},{"type":"function","name":"updateSettlerWhitelist","inputs":[{"name":"_settler","type":"address","internalType":"address"},{"name":"_status","type":"bool","internalType":"bool"}],"outputs":[],"stateMutability":"nonpayable"},{"type":"function","name":"usdcToken","inputs":[],"outputs":[{"name":"","type":"address","internalType":"address"}],"stateMutability":"view"},{"type":"event","name":"AuctionBid","inputs":[{"name":"tokenId","type":"uint256","indexed":true,"internalType":"uint256"},{"name":"bidder","type":"address","indexed":true,"internalType":"address"},{"name":"amount","type":"uint256","indexed":true,"internalType":"uint256"},{"name":"extended","type":"bool","indexed":false,"internalType":"bool"},{"name":"endTime","type":"uint256","indexed":false,"internalType":"uint256"},{"name":"urlString","type":"string","indexed":false,"internalType":"string"},{"name":"name","type":"string","indexed":false,"internalType":"string"}],"anonymous":false},{"type":"event","name":"AuctionCreated","inputs":[{"name":"tokenId","type":"uint256","indexed":true,"internalType":"uint256"},{"name":"startTime","type":"uint256","indexed":true,"internalType":"uint256"},{"name":"endTime","type":"uint256","indexed":true,"internalType":"uint256"}],"anonymous":false},{"type":"event","name":"AuctionSettled","inputs":[{"name":"tokenId","type":"uint256","indexed":true,"internalType":"uint256"},{"name":"winningBid","type":"tuple","indexed":false,"internalType":"struct AuctionTypesV4.Bid","components":[{"name":"totalAmount","type":"uint256","internalType":"uint256"},{"name":"urlString","type":"string","internalType":"string"},{"name":"contributions","type":"tuple[]","internalType":"struct AuctionTypesV4.BidContribution[]","components":[{"name":"contributor","type":"address","internalType":"address"},{"name":"amount","type":"uint256","internalType":"uint256"},{"name":"timestamp","type":"uint256","internalType":"uint256"}]}]}],"anonymous":false},{"type":"event","name":"AuctionWinnerOverridden","inputs":[{"name":"tokenId","type":"uint256","indexed":true,"internalType":"uint256"},{"name":"originalWinner","type":"tuple","indexed":false,"internalType":"struct AuctionTypesV4.Bid","components":[{"name":"totalAmount","type":"uint256","internalType":"uint256"},{"name":"urlString","type":"string","internalType":"string"},{"name":"contributions","type":"tuple[]","internalType":"struct AuctionTypesV4.BidContribution[]","components":[{"name":"contributor","type":"address","internalType":"address"},{"name":"amount","type":"uint256","internalType":"uint256"},{"name":"timestamp","type":"uint256","internalType":"uint256"}]}]},{"name":"newWinner","type":"tuple","indexed":false,"internalType":"struct AuctionTypesV4.Bid","components":[{"name":"totalAmount","type":"uint256","internalType":"uint256"},{"name":"urlString","type":"string","internalType":"string"},{"name":"contributions","type":"tuple[]","internalType":"struct AuctionTypesV4.BidContribution[]","components":[{"name":"contributor","type":"address","internalType":"address"},{"name":"amount","type":"uint256","internalType":"uint256"},{"name":"timestamp","type":"uint256","internalType":"uint256"}]}]},{"name":"refunded","type":"bool","indexed":true,"internalType":"bool"}],"anonymous":false},{"type":"event","name":"BidContributionMade","inputs":[{"name":"tokenId","type":"uint256","indexed":true,"internalType":"uint256"},{"name":"urlString","type":"string","indexed":false,"internalType":"string"},{"name":"contributor","type":"address","indexed":true,"internalType":"address"},{"name":"amount","type":"uint256","indexed":true,"internalType":"uint256"},{"name":"totalAmount","type":"uint256","indexed":false,"internalType":"uint256"},{"name":"extended","type":"bool","indexed":false,"internalType":"bool"},{"name":"endTime","type":"uint256","indexed":false,"internalType":"uint256"},{"name":"name","type":"string","indexed":false,"internalType":"string"}],"anonymous":false},{"type":"event","name":"ContributeBidReservePriceUpdated","inputs":[{"name":"contributeBidReservePrice","type":"uint256","indexed":false,"internalType":"uint256"}],"anonymous":false},{"type":"event","name":"CreateBidReservePriceUpdated","inputs":[{"name":"createBidReservePrice","type":"uint256","indexed":false,"internalType":"uint256"}],"anonymous":false},{"type":"event","name":"EmergencyWithdrawal","inputs":[{"name":"token","type":"address","indexed":true,"internalType":"address"},{"name":"to","type":"address","indexed":true,"internalType":"address"},{"name":"amount","type":"uint256","indexed":true,"internalType":"uint256"}],"anonymous":false},{"type":"event","name":"MaxExtensionTimeUpdated","inputs":[{"name":"maxExtensionTime","type":"uint256","indexed":false,"internalType":"uint256"}],"anonymous":false},{"type":"event","name":"OwnershipTransferred","inputs":[{"name":"previousOwner","type":"address","indexed":true,"internalType":"address"},{"name":"newOwner","type":"address","indexed":true,"internalType":"address"}],"anonymous":false},{"type":"event","name":"Paused","inputs":[{"name":"account","type":"address","indexed":false,"internalType":"address"}],"anonymous":false},{"type":"event","name":"RefundFailed","inputs":[{"name":"to","type":"address","indexed":true,"internalType":"address"},{"name":"amount","type":"uint256","indexed":true,"internalType":"uint256"},{"name":"reason","type":"string","indexed":false,"internalType":"string"}],"anonymous":false},{"type":"event","name":"SettlerWhitelistUpdated","inputs":[{"name":"settler","type":"address","indexed":true,"internalType":"address"},{"name":"status","type":"bool","indexed":true,"internalType":"bool"}],"anonymous":false},{"type":"event","name":"TimeBufferUpdated","inputs":[{"name":"timeBuffer","type":"uint256","indexed":false,"internalType":"uint256"}],"anonymous":false},{"type":"event","name":"Unpaused","inputs":[{"name":"account","type":"address","indexed":false,"internalType":"address"}],"anonymous":false},{"type":"error","name":"AUCTION_ACTIVE","inputs":[]},{"type":"error","name":"AUCTION_CREATE_FAILED_TO_LAUNCH","inputs":[]},{"type":"error","name":"AUCTION_NOT_STARTED","inputs":[]},{"type":"error","name":"AUCTION_OVER","inputs":[]},{"type":"error","name":"AUCTION_SETTLED","inputs":[]},{"type":"error","name":"BID_NOT_FOUND","inputs":[]},{"type":"error","name":"EnforcedPause","inputs":[]},{"type":"error","name":"ExpectedPause","inputs":[]},{"type":"error","name":"INVALID_TOKEN_ID","inputs":[]},{"type":"error","name":"NOT_WHITELISTED_SETTLER","inputs":[]},{"type":"error","name":"OwnableInvalidOwner","inputs":[{"name":"owner","type":"address","internalType":"address"}]},{"type":"error","name":"OwnableUnauthorizedAccount","inputs":[{"name":"account","type":"address","internalType":"address"}]},{"type":"error","name":"RESERVE_PRICE_NOT_MET","inputs":[]},{"type":"error","name":"ReentrancyGuardReentrantCall","inputs":[]},{"type":"error","name":"URL_ALREADY_HAS_BID","inputs":[]},{"type":"error","name":"USDC_TOKEN_TRANSFER_FAILED","inputs":[]}],"bytecode":{"object":"0x60c06040523461039a57613a04803803806100198161039e565b9283398101906101008183031261039a57610033816103c3565b90610040602082016103c3565b604082015160608301519060808401519260a085015160018060401b03811161039a57850187601f8201121561039a578051906001600160401b03821161037357610094601f8301601f191660200161039e565b98828a526020838301011161039a57815f926020809301838c015e8901015260e060c0860151950151953315610387575f543360018060a01b0382167f8be0079c531659141344cd1fd0a4f28419497f9722a3daafe3b4186f6b6457e05f80a36001600160a81b0319163360ff60a01b1916175f556001805561012c6080819052612a3060a0819052600280546001600160a01b03199081166001600160a01b03958616179091556003805490911694909316939093179091556004929092556005929092556006556009556007805460ff1916905560085582516001600160401b03811161037357600b54600181811c91168015610369575b602082101461035557601f81116102f2575b506020601f821160011461028f57819293945f92610284575b50508160011b915f199060031b1c191617600b555b600a55600c55335f52601760205260405f20600160ff198254161790556040516001337fb5853e81e340898455a75d3e328cd81cf92f70bf88352a7f42d67c7af5f758615f80a35f5460ff8160a01c166102755760ff60a01b1916600160a01b175f553381527f62e78cea01bee320cd4e420270b5ea74000d11b0c9f74754ebdbfc544b05a25890602090a160405161362c90816103d8823960805181505060a051815050f35b63d93c066560e01b5f5260045ffd5b015190505f806101b9565b601f19821690600b5f52805f20915f5b8181106102da575095836001959697106102c2575b505050811b01600b556101ce565b01515f1960f88460031b161c191690555f80806102b4565b9192602060018192868b01518155019401920161029f565b600b5f527f0175b7a638427703f0dbe7bb9bbf987a2551717b34e79f33b5b1008d1fa01db9601f830160051c8101916020841061034b575b601f0160051c01905b81811061034057506101a0565b5f8155600101610333565b909150819061032a565b634e487b7160e01b5f52602260045260245ffd5b90607f169061018e565b634e487b7160e01b5f52604160045260245ffd5b631e4fbdf760e01b5f525f60045260245ffd5b5f80fd5b6040519190601f01601f191682016001600160401b0381118382101761037357604052565b51906001600160a01b038216820361039a5756fe60806040526004361015610011575f80fd5b5f3560e01c806304270f8a146120865780630f5a9d011461203b57806311eac8551461201357806316f0a0f11461185e578063267f9487146113c757806328f6a48a146113aa5780632ac0693d1461135757806335d70c3e14610cde5780633ecf10c614610cc15780633f4ba83a14610c2157806342cdbd9c14610c045780635190895514610bdb57806355b8fb811461099f5780635c975abb1461097b57806361d027b3146109535780637120334b146108ff578063715018a6146108a857806371851716146108545780637c4374aa146108175780637d9f6db5146106e457806383483f951461068e5780638456cb591461062e57806385d6cdd2146106115780638d0f6da31461052b5780638da5cb5b14610504578063a4d0a17e146104c1578063b9f11b5114610489578063d71c745e1461046c578063df76fcc114610418578063e06174e414610366578063ea1dcd84146102ee578063ec91f2a4146102d1578063f25efffc14610276578063f2fde38b146101f15763f98537131461019a575f80fd5b346101ed5760203660031901126101ed576004356001600160401b0381116101ed576101d56101d06101e9923690600401612269565b612c52565b6040519182916020835260208301906124b2565b0390f35b5f80fd5b346101ed5760203660031901126101ed5761020a6122af565b610212612ccb565b6001600160a01b03168015610263575f80546001600160a01b03198116831782556001600160a01b0316907f8be0079c531659141344cd1fd0a4f28419497f9722a3daafe3b4186f6b6457e09080a3005b631e4fbdf760e01b5f525f60045260245ffd5b346101ed575f3660031901126101ed5761028e612d0f565b610296612d2f565b335f52601760205260ff60405f205416156102c2576102b3613114565b6102bb612ec6565b5060018055005b6312e42df760e31b5f5260045ffd5b346101ed575f3660031901126101ed576020600654604051908152f35b346101ed5760403660031901126101ed576103076122af565b602435908115158092036101ed5761031d612ccb565b6001600160a01b03165f818152601760205260408120805460ff191660ff85161790557fb5853e81e340898455a75d3e328cd81cf92f70bf88352a7f42d67c7af5f758619080a3005b346101ed575f3660031901126101ed5760018060a01b036002541660018060a01b0360035416906101e960045460055460065460ff600754166008549160095493604051956103b487612212565b600a5487526040516103d2816103cb81600b61234d565b038261222d565b6020880152604051998a998a5260208a0152604089015260608801526080870152151560a086015260c085015260e0840152610120610100840152610120830190612531565b346101ed5760203660031901126101ed577f846f992d6833d9588ad687ec7cdc64a609f60b1f6bf71437e1c0ba257464a1536020600435610457612ccb565b61045f612cf1565b80600455604051908152a1005b346101ed575f3660031901126101ed576020600554604051908152f35b346101ed5760203660031901126101ed576104a2612ccb565b6104aa612cf1565b6104b960ff600754161561254e565b600435600c55005b346101ed575f3660031901126101ed576104d9612d0f565b6104e1612cf1565b335f52601760205260ff60405f205416156102c2576104fe613114565b60018055005b346101ed575f3660031901126101ed575f546040516001600160a01b039091168152602090f35b346101ed575f3660031901126101ed57601454610547816123ce565b90610555604051928361222d565b80825260208201908160145f527fce6d7b5282bd9a3661ae061feed1dbda4e52ab073b1f9285be6e155d9c38d4ec5f915b8383106105f357848660405191829160208301906020845251809152604083019060408160051b85010192915f905b8282106105c457505050500390f35b919360019193955060206105e38192603f198a820301865288516124b2565b96019201920185949391926105b5565b60036020600192610603856123e5565b815201920192019190610586565b346101ed575f3660031901126101ed576020600454604051908152f35b346101ed575f3660031901126101ed57610646612ccb565b61064e612d2f565b5f805460ff60a01b1916600160a01b1790556040513381527f62e78cea01bee320cd4e420270b5ea74000d11b0c9f74754ebdbfc544b05a25890602090a1005b346101ed5760203660031901126101ed576001600160a01b036106af6122af565b165f5260136020526101e96103cb6106d060405f206040519283809261234d565b60405191829160208352602083019061248e565b346101ed575f3660031901126101ed57600c5460405190610704826121f7565b600d54825260405161071b816103cb81600e61234d565b6020830152600f5461072c816123ce565b9061073a604051928361222d565b808252600f5f9081525f5160206135d75f395f51905f52602084015b8383106107d9575050505060408301526101e960105460115460ff601254166040519161078283612212565b6015548352604051610799816103cb81601661234d565b60208401526107ba604051978897885260c0602089015260c08801906124b2565b93604087015260608601521515608085015283820360a0850152612531565b600360206001926040516107ec816121f7565b848060a01b038654168152848601548382015260028601546040820152815201920192019190610756565b346101ed5760203660031901126101ed576001600160a01b036108386122af565b165f526017602052602060ff60405f2054166040519015158152f35b346101ed5760203660031901126101ed577fdc42a4175e997f405d03403475673bb191da4147cbee7a9bf8d7fbdef17d09556020600435610893612ccb565b61089b612cf1565b80600955604051908152a1005b346101ed575f3660031901126101ed576108c0612ccb565b5f80546001600160a01b0319811682556001600160a01b03167f8be0079c531659141344cd1fd0a4f28419497f9722a3daafe3b4186f6b6457e08280a3005b346101ed5760203660031901126101ed577f51c05df9b26498d8aacb73705841d08155abf0e88e37a735871e545bc27b38bb602060043561093e612ccb565b610946612cf1565b80600655604051908152a1005b346101ed575f3660031901126101ed576003546040516001600160a01b039091168152602090f35b346101ed575f3660031901126101ed57602060ff5f5460a01c166040519015158152f35b346101ed5760603660031901126101ed576109b86122af565b6024356001600160a01b038116908181036101ed57604435926109d9612ccb565b8215610ba2578315610b68576040516370a0823160e01b81523060048201526001600160a01b03919091169190602081602481865afa8015610b5d5785915f91610b26575b5091610a2f5f939284931015612bd7565b60405163a9059cbb60e01b602082019081526001600160a01b03909216602482015260448101879052610a6f81606481015b03601f19810183528261222d565b51908285620186a0f1610a80612c23565b81610af7575b5015610ab2577f9495d03190a79a43e534c9e328ff322f6283261383f5f19c809564f6ad5a57b35f80a4005b60405162461bcd60e51b815260206004820152601760248201527f4552433230207769746864726177616c206661696c65640000000000000000006044820152606490fd5b8051801592508215610b0c575b505084610a86565b610b1f92506020809183010191016127e2565b8480610b04565b9150506020813d602011610b55575b81610b426020938361222d565b810103126101ed57518490610a2f610a1e565b3d9150610b35565b6040513d5f823e3d90fd5b60405162461bcd60e51b81526020600482015260126024820152710416d6f756e74206d757374206265203e20360741b6044820152606490fd5b60405162461bcd60e51b8152602060048201526011602482015270125b9d985b1a59081c9958da5c1a595b9d607a1b6044820152606490fd5b346101ed5760203660031901126101ed57610bf4612ccb565b610bfc612cf1565b600435600855005b346101ed575f3660031901126101ed576020600854604051908152f35b346101ed575f3660031901126101ed57610c39612ccb565b610c41612cf1565b60ff60a01b195f54165f557f5db9ee0a495bf2e6ff9c91a7834c1ba4fdd244a5e8aa4e537bd38aeae4b073aa6020604051338152a160075460ff16610cab57600160ff196007541617600755610c95612ec6565b15610c9c57005b63c4dffaed60e01b5f5260045ffd5b60ff60125416610cb757005b610cbf612ec6565b005b346101ed575f3660031901126101ed576020600954604051908152f35b346101ed5760a03660031901126101ed57610cf76122af565b6024356001600160401b0381116101ed57610d16903690600401612269565b906044359060643591821515928381036101ed576084356001600160401b0381116101ed57610d49903690600401612269565b90610d52612d0f565b610d5a612d2f565b335f52601760205260ff60405f205416156102c25760ff601254166113485760405193610d86856121f7565b600d548552604051610d9d816103cb81600e61234d565b6020860152600f54610dae816123ce565b90610dbc604051928361222d565b808252600f5f9081525f5160206135d75f395f51905f52602084015b83831061130a5750505050604086015281806112ff575b806112f4575b806112ce575b611237575b6001600160a01b03165f818152601360205260409020835191939091906001600160401b03821161108657610e3f82610e398554612315565b85612622565b602090601f83116001146111d457610e6e92915f91836111c9575b50508160011b915f199060031b1c19161790565b90555b85516001600160401b03811161108657610e9581610e90601654612315565b6125ea565b6020601f8211600114611165579080610ec2925f9161115a575b508160011b915f199060031b1c19161790565b6016555b1561109a57610ef790610ed7612807565b60405190610ee4826121f7565b81528260208201524260408201526128fc565b600d5582516001600160401b03811161108657610f1e81610f19600e54612315565b6125b0565b6020601f8211600114611023578190610f4d9394955f926110185750508160011b915f199060031b1c19161790565b600e555b600c5490610f6a604051916040835260408301906124b2565b8181036020830152600d54815260606020820152610f8c60608201600e61234d565b9060408183039101526020600f54918281520190600f5f5260205f20905f5b818110610fe4575050509080827f93c544b4dcf571297a98295ea7302217093c0f9f24586fb49b6bb8c59bc6c06d93500390a360018055005b82546001600160a01b0316845260018084015460208601526002840154604086015260609094019360039093019201610fab565b015190508580610e5a565b601f19821690600e5f52805f20915f5b81811061106e57509583600195969710611056575b505050811b01600e55610f51565b01515f1960f88460031b161c19169055848080611048565b9192602060018192868b015181550194019201611033565b634e487b7160e01b5f52604160045260245ffd5b906110af6110b79260405190610ee4826121f7565b600d5461292d565b600d5582516001600160401b038111611086576110d981610f19600e54612315565b6020601f82116001146111105781906111089394955f926110185750508160011b915f199060031b1c19161790565b600e55610f51565b601f19821690600e5f52805f20915f5b8181106111425750958360019596971061105657505050811b01600e55610f51565b9192602060018192868b015181550194019201611120565b905088015189610eaf565b601f1982169060165f52805f20915f5b8a8282106111b15750509083600194939210611199575b5050811b01601655610ec6565b8901515f1960f88460031b161c19169055888061118c565b60018495602093958493015181550194019201611175565b015190508a80610e5a565b90601f19831691845f52815f20925f5b81811061121f5750908460019594939210611207575b505050811b019055610e71565b01515f1960f88460031b161c191690558980806111fa565b929360206001819287860151815501950193016111e4565b9594939291905f5b600f548110156112c257600f548110156112ae57600f5f52600381025f5160206135d75f395f51905f528101547f8d1108e10bcb7c27dddfc02ed9d693a074039d026cf4ea4240b40f7d581ac80390910154600192916112a891906001600160a01b0316612d4c565b0161123f565b634e487b7160e01b5f52603260045260245ffd5b50909192939495610e00565b506112d761268f565b602081519101206112e6612bb7565b602081519101201415610dfb565b50600d541515610df5565b50600f541515610def565b6003602060019260405161131d816121f7565b848060a01b038654168152848601548382015260028601546040820152815201920192019190610dd8565b6359ac355360e01b5f5260045ffd5b346101ed5760203660031901126101ed577ebd81bd3a5ab00a674934e7f106f3f596e361340afd658be47e51da45f2c6166020600435611395612ccb565b61139d612cf1565b80600555604051908152a1005b346101ed575f3660031901126101ed576020601454604051908152f35b346101ed576113d5366122c5565b90916113df612d0f565b80600c540361184f5760ff6012541661134857601154421015611840576014545f1990602085015f5b828110611807575b5050505f1981146117f8576114249061265a565b50600254604051636eb1769f60e11b81523360048201523060248201526001600160a01b039091169490602081604481895afa908115610b5d575f916117c6575b506040516370a0823160e01b81523360048201526020816024818a5afa908115610b5d575f91611794575b508082101561178c5750945b600554861061177d576040516323b872dd60e01b81523360048201523060248201526044810187905290602090829060649082905f905af1908115610b5d575f9161174e575b501561173f57335f52601360205260405f2084516001600160401b03811161108657611518816115128454612315565b84612622565b6020601f82116001146116df579080611544925f916116d457508160011b915f199060031b1c19161790565b90555b6002820190604051611558816121f7565b3381528660208201524260408201528254600160401b811015611086578060016115859201855584612676565b9390936116c1577f4d0e3fd4331c50b1ec39870ae1cd8aff27467d754939ec893117c4e1dfa9a7a5946115be611615936115f4966128c7565b6115c989825461292d565b8082555f92600d54821161161e575b505054906011549060405195869560a0875260a087019061248e565b9260208601521515604085015260608401528281036080840152339661248e565b0390a460018055005b61162a91600d5561293a565b60018101611637816129ca565b61164081612744565b6020815191012061164f61268f565b6020815191012003611662575b806115d8565b61166d919250612ac8565b601154906006549182428203109283611687575b5061165c565b600854600954018091420192105f146116b657808210156116af57505b6011555b8980611681565b90506116a4565b505090505f906116a8565b634e487b7160e01b5f525f60045260245ffd5b905087015189610eaf565b601f19821690835f52805f20915f5b8181106117275750908360019493921061170f575b5050811b019055611547565b8801515f1960f88460031b161c191690558880611703565b9192602060018192868d0151815501940192016116ee565b63772bc70d60e11b5f5260045ffd5b611770915060203d602011611776575b611768818361222d565b8101906127e2565b866114e2565b503d61175e565b633412a95360e01b5f5260045ffd5b90509461149c565b90506020813d6020116117be575b816117af6020938361222d565b810103126101ed575187611490565b3d91506117a2565b90506020813d6020116117f0575b816117e16020938361222d565b810103126101ed575186611465565b3d91506117d4565b6334ca740d60e01b5f5260045ffd5b61181c60016118158361265a565b5001612744565b60208151910120875183201461183457600101611408565b92505050848080611410565b630b4f852960e11b5f5260045ffd5b63b49aa3b560e01b5f5260045ffd5b346101ed5761186c366122c5565b9091611876612d0f565b80600c540361184f5760ff601254166113485760115442101561184057601454602084015f5b828110611fde575050600254604051636eb1769f60e11b81523360048201523060248201526001600160a01b03909116949150602081604481885afa908115610b5d575f91611fac575b506040516370a0823160e01b8152336004820152602081602481895afa908115610b5d575f91611f7a575b5080821015611f725750935b600454851061177d576040516323b872dd60e01b81523360048201523060248201526044810186905290602090829060649082905f905af1908115610b5d575f91611f53575b501561173f57335f52601360205260405f2083516001600160401b03811161108657611993816115128454612315565b6020601f8211600114611ef35790806119bf925f91611ee857508160011b915f199060031b1c19161790565b90555b6040908151906119d2838361222d565b60018252601f1983015f5b818110611ec157505082516119f1816121f7565b3381528660208201524284820152611a08836127fa565b52611a12826127fa565b508251611a1e816121f7565b868152602081019082825284810191848352601454600160401b81101561108657806001611a4f920160145561265a565b9290926116c15751825551805160018301916001600160401b03821161108657611a7d82610e398554612315565b602090601f8311600114611e5a579180611ab09260029695945f92611e4f5750508160011b915f199060031b1c19161790565b90555b019051906020825192611ac6848461285e565b01905f5260205f205f915b838310611e3157505050505f91600d548711611b43575b5090611615611b347f1282b1befc2db368f99c1cf2a1c664ea4194229df47ef36ac5e90e25d21f65c294936080601154958051968796151587526020870152850152608084019061248e565b8281036060840152339661248e565b90915085600d5581516001600160401b03811161108657611b6981610f19600e54612315565b6020601f8211600114611dcf579080611b95925f91611dc457508160011b915f199060031b1c19161790565b600e555b805190600160401b821161108657600f5482600f55808310611d57575b50602001600f5f5260205f205f915b838310611d39575050505080516001600160401b03811161108657611bef81610e90601654612315565b6020601f8211600114611cb457817f1282b1befc2db368f99c1cf2a1c664ea4194229df47ef36ac5e90e25d21f65c2949392611c3e925f91611ca957508160011b915f199060031b1c19161790565b6016555b601154906006549182428203109283611c60575b5050909192611ae8565b600854600954018091420192105f14611c985791611b3491611615938082105f14611c9157505b6011555b91611c56565b9050611c87565b50509050611615611b345f92611c8b565b905083015189610eaf565b601f1982169060165f52805f20915f5b818110611d2157509183917f1282b1befc2db368f99c1cf2a1c664ea4194229df47ef36ac5e90e25d21f65c296959460019410611d09575b5050811b01601655611c42565b8401515f1960f88460031b161c191690558880611cfc565b91926020600181928689015181550194019201611cc4565b6003602082611d4b60019451866128c7565b01920192019190611bc5565b80600302906003820403611db05782600302600381048403611db057600f5f525f5160206135d75f395f51905f5291820191015b818110611d985750611bb6565b805f600392555f60018201555f600282015501611d8b565b634e487b7160e01b5f52601160045260245ffd5b905084015189610eaf565b601f19821690600e5f52805f20915f5b818110611e1957509083600194939210611e01575b5050811b01600e55611b99565b8501515f1960f88460031b161c191690558880611df4565b9192602060018192868a015181550194019201611ddf565b6003602082611e4360019451866128c7565b01920192019190611ad1565b015190508d80610e5a565b90601f19831691845f52815f20925f5b818110611ea9575091600193918560029897969410611e91575b505050811b019055611ab3565b01515f1960f88460031b161c191690558c8080611e84565b92936020600181928786015181550195019301611e6a565b6020908551611ecf816121f7565b5f81525f838201525f87820152828287010152016119dd565b905086015188610eaf565b601f19821690835f52805f20915f5b818110611f3b57509083600194939210611f23575b5050811b0190556119c2565b8701515f1960f88460031b161c191690558780611f17565b9192602060018192868c015181550194019201611f02565b611f6c915060203d60201161177657611768818361222d565b85611963565b90509361191d565b90506020813d602011611fa4575b81611f956020938361222d565b810103126101ed575186611911565b3d9150611f88565b90506020813d602011611fd6575b81611fc76020938361222d565b810103126101ed5751856118e6565b3d9150611fba565b611fec60016118158361265a565b6020815191012086518320146120045760010161189c565b637048a18b60e11b5f5260045ffd5b346101ed575f3660031901126101ed576002546040516001600160a01b039091168152602090f35b346101ed5760203660031901126101ed576120546122af565b61205c612ccb565b612064612cf1565b600280546001600160a01b0319166001600160a01b0392909216919091179055005b346101ed5760403660031901126101ed576004356001600160401b0381116101ed576120b6903690600401612269565b6120be612ccb565b6120c6612cf1565b6120d560ff600754161561254e565b80516001600160401b038111611086576120f0600b54612315565b601f811161219e575b50602091601f821160011461213e57612127925f91836121335750508160011b915f199060031b1c19161790565b600b555b602435600a55005b015190508380610e5a565b601f19821692600b5f52805f20915f5b8581106121865750836001951061216e575b505050811b01600b5561212b565b01515f1960f88460031b161c19169055828080612160565b9192602060018192868501518155019401920161214e565b600b5f526121e7907f0175b7a638427703f0dbe7bb9bbf987a2551717b34e79f33b5b1008d1fa01db9601f840160051c810191602085106121ed575b601f0160051c019061259a565b826120f9565b90915081906121da565b606081019081106001600160401b0382111761108657604052565b604081019081106001600160401b0382111761108657604052565b90601f801991011681019081106001600160401b0382111761108657604052565b6001600160401b03811161108657601f01601f191660200190565b81601f820112156101ed578035906122808261224e565b9261228e604051948561222d565b828452602083830101116101ed57815f926020809301838601378301015290565b600435906001600160a01b03821682036101ed57565b60606003198201126101ed57600435916024356001600160401b0381116101ed57826122f391600401612269565b91604435906001600160401b0382116101ed5761231291600401612269565b90565b90600182811c92168015612343575b602083101461232f57565b634e487b7160e01b5f52602260045260245ffd5b91607f1691612324565b5f929181549161235c83612315565b80835292600181169081156123b1575060011461237857505050565b5f9081526020812093945091925b838310612397575060209250010190565b600181602092949394548385870101520191019190612386565b915050602093945060ff929192191683830152151560051b010190565b6001600160401b0381116110865760051b60200190565b906040516123f2816121f7565b600281938054835260405161240e816103cb816001860161234d565b602084015201908154612420816123ce565b9261242e604051948561222d565b81845260208401905f5260205f205f915b838310612450575050505060400152565b60036020600192604051612463816121f7565b848060a01b03865416815284860154838201526002860154604082015281520192019201919061243f565b805180835260209291819084018484015e5f828201840152601f01601f1916010190565b8051825260406124d1602083015160606020860152606085019061248e565b910151916040818303910152602080835192838152019201905f5b8181106124f95750505090565b825180516001600160a01b031685526020818101518187015260409182015191860191909152606090940193909201916001016124ec565b90604060206123129380518452015191816020820152019061248e565b1561255557565b60405162461bcd60e51b815260206004820152601860248201527f41756374696f6e20616c7265616479206c61756e6368656400000000000000006044820152606490fd5b8181106125a5575050565b5f815560010161259a565b90601f82116125bd575050565b6125e891600e5f5260205f20906020601f840160051c830193106121ed57601f0160051c019061259a565b565b90601f82116125f7575050565b6125e89160165f5260205f20906020601f840160051c830193106121ed57601f0160051c019061259a565b9190601f811161263157505050565b6125e8925f5260205f20906020601f840160051c830193106121ed57601f0160051c019061259a565b6014548110156112ae5760145f52600360205f20910201905f90565b80548210156112ae575f52600360205f20910201905f90565b604051905f82600e54916126a283612315565b808352926001811690811561272557506001146126c6575b6125e89250038361222d565b50600e5f90815290917fbb7b4a454dc3493923482f07822329ed19e8244eff582cc204f8554c3620c3fd5b8183106127095750509060206125e8928201016126ba565b60209193508060019154838589010152019101909184926126f1565b602092506125e894915060ff191682840152151560051b8201016126ba565b9060405191825f82549261275784612315565b80845293600181169081156127c0575060011461277c575b506125e89250038361222d565b90505f9291925260205f20905f915b8183106127a45750509060206125e8928201015f61276f565b602091935080600191548385890101520191019091849261278b565b9050602092506125e894915060ff191682840152151560051b8201015f61276f565b908160209103126101ed575180151581036101ed5790565b8051156112ae5760200190565b600f545f600f55806128165750565b80600302906003820403611db057600f5f525f5160206135d75f395f51905f52908101905b818110612846575050565b805f600392555f60018201555f60028201550161283b565b90600160401b81116110865781549181815582821061287c57505050565b82600302926003840403611db05781600302916003830403611db0575f5260205f2091820191015b8181106128af575050565b805f600392555f60018201555f6002820155016128a4565b815181546001600160a01b0319166001600160a01b039190911617815560208201516001820155604090910151600290910155565b600f54600160401b8110156110865780600161291d9201600f55600f612676565b9190916116c1576125e8916128c7565b91908201809211611db057565b80600f146129c75780549061295082600f61285e565b5f90815260208120600f82525f5160206135d75f395f51905f52905b8383106129795750505050565b600380826001938503612993575b0192019201919061296c565b805485546001600160a01b03191660a086901b86900391909116178555808401548585015560028082015490860155612987565b50565b9081601614612ac4576129dd8254612315565b6001600160401b03811161108657612a01816129fa601654612315565b6016612622565b5f92601f8211600114612a3f57612a2f929382915f92612a345750508160011b915f199060031b1c19161790565b601655565b015490505f80610e5a565b5f9081526020812060168252937fd833147d7dc355ba459fc788f669e58cfaf9dc25ddcd0702e87d69c7b512428991601f198416905b818110612aac575094836001959610612a94575b505050811b01601655565b01545f1960f88460031b161c191690555f8080612a89565b9192600180602092868a015481550194019201612a75565b9050565b9081600e14612ac457612adb8254612315565b6001600160401b03811161108657612aff81612af8600e54612315565b600e612622565b5f92601f8211600114612b3257612b2d929382915f92612a345750508160011b915f199060031b1c19161790565b600e55565b5f90815260208120600e8252937fbb7b4a454dc3493923482f07822329ed19e8244eff582cc204f8554c3620c3fd91601f198416905b818110612b9f575094836001959610612b87575b505050811b01600e55565b01545f1960f88460031b161c191690555f8080612b7c565b9192600180602092868a015481550194019201612b68565b60405190612bc660408361222d565b6002825261060f60f31b6020830152565b15612bde57565b60405162461bcd60e51b815260206004820152601d60248201527f496e73756666696369656e7420636f6e74726163742062616c616e63650000006044820152606490fd5b3d15612c4d573d90612c348261224e565b91612c42604051938461222d565b82523d5f602084013e565b606090565b604051612c5e816121f7565b5f81526060602082015260606040820152505f90601454915b828110612c8d576334ca740d60e01b5f5260045ffd5b612c9b60016118158361265a565b602081519101208251602084012014612cb657600101612c77565b6123129250612cc5915061265a565b506123e5565b5f546001600160a01b03163303612cde57565b63118cdaa760e01b5f523360045260245ffd5b60ff5f5460a01c1615612d0057565b638dfc202b60e01b5f5260045ffd5b600260015414612d20576002600155565b633ee5aeb560e01b5f5260045ffd5b60ff5f5460a01c16612d3d57565b63d93c066560e01b5f5260045ffd5b8115612ec2576002546040516370a0823160e01b81523060048201526001600160a01b0390911690602081602481855afa8015610b5d5784915f91612e8b575b5091612d9d5f939284931015612bd7565b60405163a9059cbb60e01b602082019081526001600160a01b038616602483015260448201879052908390612dd58160648101610a61565b5192620186a0f1612de4612c23565b9015908115612e5b575b50612df7575050565b7f1469dedbe97a634ed62eda0e28633c10e232f4d2ae037854efce50d9c7bb74a560606040519260208452601a60208501527f5553444320746f6b656e207472616e73666572206661696c6564000000000000604085015260018060a01b031692a3565b8051801515925082612e70575b50505f612dee565b612e8392506020809183010191016127e2565b155f80612e68565b9150506020813d602011612eba575b81612ea76020938361222d565b810103126101ed57518390612d9d612d8c565b3d9150612e9a565b5050565b600c5460018101809111611db057600c55426010556008546011555f600d55612ef0600e54612315565b601f81116130d6575b50600461060f60f31b01600e819055612f10612807565b60ff1960125416601255600854620151808101809111611db057601555612f38601654612315565b601f8111613098575b506016556014545f60145580612f85575b50600c546008549042907fd6eddd1118d71820909c1197aa966dbc15ed6f508554252169cc3d5ccac756ca5f80a4600190565b80600302906003820403611db05760145f527fce6d7b5282bd9a3661ae061feed1dbda4e52ab073b1f9285be6e155d9c38d4ec017fce6d7b5282bd9a3661ae061feed1dbda4e52ab073b1f9285be6e155d9c38d4ec5b818110612fe85750612f52565b5f815560018101612ff98154612315565b9081613055575b5050600281018054905f81558161301c575b5050600301612fdb565b81600302916003830403611db0575f5260205f20908101905b8181101561301257805f600392555f60018201555f600282015501613035565b81601f5f931160011461306c5750555b5f80613000565b8183526020832061308891601f0160051c81019060010161259a565b8082528160208120915555613065565b60165f526130d090601f0160051c7fd833147d7dc355ba459fc788f669e58cfaf9dc25ddcd0702e87d69c7b51242899081019061259a565b5f612f41565b600e5f5261310e90601f0160051c7fbb7b4a454dc3493923482f07822329ed19e8244eff582cc204f8554c3620c3fd9081019061259a565b5f612ef9565b60125460ff811661134857601054156134e95760115442106134da5760ff1916600117601255600854620151808101908110611db05760085561315561268f565b60208151910120613164612bb7565b80516020909101201461347257600d54806133ed575b50600854600a5561318c601654612315565b906001600160401b038211611086576131b1826131aa600b54612315565b600b612622565b5f91601f811160011461334a57806131dd92935f9161333e57508160011b915f199060031b1c19161790565b600b555b5f5b601454811015613280576131f68161265a565b509161320460018401612744565b6020815191012061321361268f565b602081519101201480613274575b61326a57916002015f5b815481101561325e578061325861324460019385612676565b5083808060a01b0382541691015490612d4c565b0161322b565b50506001905b016131e3565b9150600190613264565b508254600d5414613221565b50600c5460405160208152600d546020820152606060408201526132a860808201600e61234d565b818103601f19016060830152600f80548083525f9182526020909201915f5160206135d75f395f51905f52915b81811061330a575050509080827f0341035e69ef48b17253c0db48604a08b36340580f19fe73ec7652d6ef2c0e8d93500390a2565b82546001600160a01b03168452600180840154602086015260028401546040860152606090940193600390930192016132d5565b9050601601545f610eaf565b600b5f9081527fd833147d7dc355ba459fc788f669e58cfaf9dc25ddcd0702e87d69c7b5124289937f0175b7a638427703f0dbe7bb9bbf987a2551717b34e79f33b5b1008d1fa01db991601f198416905b8181106133d55750948360019596106133bd575b505050811b01600b556131e1565b01545f1960f88460031b161c191690555f80806133af565b9192600180602092868a01548155019401920161339b565b6002546040516370a0823160e01b815230600482015290602090829060249082906001600160a01b03165afa8015610b5d5782915f9161343d575b501061317a57613437906134f7565b5f61317a565b9150506020813d60201161346a575b816134596020938361222d565b810103126101ed578190515f613428565b3d915061344c565b5f600a55613481600b54612315565b601f811161349c575b50600461060f60f31b01600b556131e1565b600b5f526134d490601f0160051c7f0175b7a638427703f0dbe7bb9bbf987a2551717b34e79f33b5b1008d1fa01db99081019061259a565b5f61348a565b636a6f657d60e01b5f5260045ffd5b6260576d60e01b5f5260045ffd5b80156129c75760025460035460405163a9059cbb60e01b602082019081526001600160a01b03928316602483015260448201949094525f938493909216919083906135458160648101610a61565b5192620186a0f1613554612c23565b816135a7575b501561356257565b60405162461bcd60e51b815260206004820152601860248201527f5472656173757279207472616e73666572206661696c656400000000000000006044820152606490fd5b80518015925082156135bc575b50505f61355a565b6135cf92506020809183010191016127e2565b5f806135b456fe8d1108e10bcb7c27dddfc02ed9d693a074039d026cf4ea4240b40f7d581ac802a26469706673582212204c5484c3257148bc76f889d9d637ec073cc3c673234d18d76a0f74310852483064736f6c634300081c0033","linkReferences":{}},"methodIdentifiers":{"auction()":"7d9f6db5","contributeBidReservePrice()":"d71c745e","contributeToBid(uint256,string,string)":"267f9487","createBid(uint256,string,string)":"16f0a0f1","createBidReservePrice()":"85d6cdd2","emergencyWithdrawERC20(address,address,uint256)":"55b8fb81","getAllBids()":"8d0f6da3","getBid(string)":"f9853713","getBidCount()":"28f6a48a","getBidderName(address)":"83483f95","isWhitelistedSettler(address)":"7c4374aa","maxExtensionTime()":"3ecf10c6","overrideAuctionWinner(address,string,uint256,bool,string)":"35d70c3e","owner()":"8da5cb5b","pause()":"8456cb59","paused()":"5c975abb","renounceOwnership()":"715018a6","scheduledEndTime()":"42cdbd9c","setContributeBidReservePrice(uint256)":"2ac0693d","setCreateBidReservePrice(uint256)":"df76fcc1","setInitialMetadata(string,uint256)":"04270f8a","setInitialTokenId(uint256)":"b9f11b51","setMaxExtensionTime(uint256)":"71851716","setScheduledEndTime(uint256)":"51908955","setTimeBuffer(uint256)":"7120334b","setUSDCToken(address)":"0f5a9d01","settings()":"e06174e4","settleAuction()":"a4d0a17e","settleCurrentAndCreateNewAuction()":"f25efffc","timeBuffer()":"ec91f2a4","transferOwnership(address)":"f2fde38b","treasury()":"61d027b3","unpause()":"3f4ba83a","updateSettlerWhitelist(address,bool)":"ea1dcd84","usdcToken()":"11eac855"},"id":20}